:020000040800F2
:10000000B0070020890100088F140008B31200080F
:100010008D1400088F0200089718000800000000E7
:10002000000000000000000000000000E3150008D0
:100030009102000800000000E1150008E515000825
:10004000A3010008A3010008A3010008A301000800
:10005000A3010008A3010008A3010008A3010008F0
:10006000A3010008A3010008A3010008A3010008E0
:10007000A3010008A3010008A3010008A3010008D0
:10008000A3010008A3010008A3010008A3010008C0
:10009000A3010008A3010008A3010008A3010008B0
:1000A000A3010008A3010008A3010008A3010008A0
:1000B000A301000849160008A3010008A3010008D5
:1000C000A3010008A3010008A3010008A301000880
:1000D000A3010008A3010008A3010008A301000870
:1000E000A3010008A3010008A301000800F002F822
:1000F00000F03AF80AA090E8000C82448344AAF188
:100100000107DA4501D100F02FF8AFF2090EBAE885
:100110000F0013F0010F18BFFB1A43F0010318473B
:10012000C8220000E8220000103A24BF78C878C135
:10013000FAD8520724BF30C830C144BF04680C60ED
:10014000704700000023002400250026103A28BF35
:1001500078C1FBD8520728BF30C148BF0B60704739
:100160001FB51FBD10B510BD00F058F81146FFF7C0
:10017000F7FF01F0A1FB00F076F803B4FFF7F2FF00
:1001800003BC00F07DF8000009488047094800479B
:10019000FEE7FEE7FEE7FEE7FEE7FEE7FEE7FEE737
:1001A000FEE7FEE704480549054A064B7047000094
:1001B00047160008ED000008B0010020B00700203D
:1001C000B0030020B00300204FF0000200B513463A
:1001D00094469646203922BFA0E80C50A0E80C5067
:1001E000B1F12001BFF4F7AF090728BFA0E80C5018
:1001F00048BF0CC05DF804EB890028BF40F8042B11
:1002000008BF704748BF20F8022B11F0804F18BF7D
:1002100000F8012B7047704770477047754600F033
:100220002BF8AE4605006946534620F00700854688
:1002300018B020B5FFF7B6FFBDE820404FF000062C
:100240004FF000074FF000084FF0000B21F00701BE
:10025000AC46ACE8C009ACE8C009ACE8C009ACE801
:10026000C0098D46704710B50446AFF300802046A4
:10027000BDE81040FFF781BF0048704750010020E3
:1002800001491820ABBEFEE7260002007047FEE7DA
:100290007047000070B5044600F008F90546601C80
:1002A00002D004480078044400F000F9401BA0424A
:1002B000FAD370BD200000202DE9F84FDFF8B89187
:1002C0000024A9F1040B23460F2709F1040AABF11E
:1002D000040EC9E00125A5402A40AA427DD1674EFF
:1002E000D1F804C0ACEB0608B44532D014DCBCF144
:1002F000030F3AD009DCBCF1000F2AD0BCF1010F8A
:100300001CD0BCF1020F31D11DE0BCF1110F17D090
:10031000BCF1120F2AD119E0B8F5881F19D006DCFC
:10032000B8F5803F15D0B8F5801F1FD111E0B8F5A2
:10033000001F0ED0B8F5041F18D10AE0CB6815E0F5
:10034000CB681B1D12E0CB6808330FE0CB680C3381
:100350000CE08B682BB1012B4FF0080303D04561F3
:1003600004E0042302E0056100E00023FF2A01D835
:10037000064601E000F104064FEA840501D9A5F123
:100380002005D6F8008007FA05FC28EA0C0803FAD5
:1003900005F548EA0508C6F800804D68ED0062D50D
:1003A000374DAE6946F00106AE61AD6924F0030633
:1003B00005F001050095334D06EB050CDCF80850FF
:1003C000A607360F07FA06F825EA0805DFF8B88011
:1003D000404503D14FF0000817E044E0DFF8AC805F
:1003E000404502D14FF001080FE0DFF8A4804045FE
:1003F00002D14FF0020808E0DFF89880404502D1B2
:100400004FF0030801E04FF0040808FA06F848EA44
:100410000508CCF808804D68D9F80060ED024D461B
:1004200001D5164300E096432E604D68DAF800606F
:10043000AD02554601D5164300E096432E604D6847
:10044000DBF80060AD035D4601D5164300E096433E
:100450002E604D68DEF80060ED03754601D5164349
:1004600000E096432E60641C0D682A46E5407FF448
:1004700031AFBDE8F88F0000080401400000111002
:10048000001002400000014000080140000C014043
:1004900000100140001401408068084000D0012095
:1004A00070470AB1016170470904FBE701488068A1
:1004B0007047000020000020024881680278114443
:1004C0008160704720000020074810B5016841F0A6
:1004D00010010160032000F075F80F2000F006F80D
:1004E00000F024F8002010BD0020024070B50D4D32
:1004F00004464FF47A712878B1FBF0F00A49096894
:10050000B1FBF0F000F0BCFA48B9102C07D2002281
:100510002146501E00F036F800206C6070BD0120AE
:1005200070BD0000200000202C0000200C4808B501
:10053000816941F001018161816901F0010100914E
:10054000C16941F08051C161C06900F080500090E4
:100550000448416821F0E06141F00071416008BD4C
:100560000010024000000140002809DB00F01F02DB
:10057000012191404009800000F1E020C0F8001105
:1005800070470000F0B40E4B1B680C46C3F3022307
:10059000C3F10705042D00D90425191D072901D22F
:1005A000002300E0DB1E012606FA05F1491E21406A
:1005B00099409E40761E16403143F0BC01F06CB964
:1005C0000CED00E0064900F0070208684FF6FF0353
:1005D000184040EA0220034A1043086070470000B8
:1005E0000CED00E00000FA052DE9F0470F4605008C
:1005F00061D0434E306800F00700B84209D230683D
:1006000020F0070038433060306800F00700B8423F
:1006100051D128683B4C810712D5400703D560684B
:1006200040F4E06060602878000703D5606840F41B
:10063000605060606068A96820F0F0000843606066
:100640002878C00728D06868012810D021680228BF
:1006500010D0890700292EDA616821F003010143D7
:100660006160FFF723FF804641F288390DE0216881
:100670008903EFE78901EDE7FFF718FFA0EB080119
:10068000494502D90320BDE8F0876068696800F039
:100690000C00B0EB810FEFD1306800F00700B842DA
:1006A0000BD9306820F0070038433060306800F024
:1006B0000700B84201D00120E5E72878400705D5BA
:1006C0006068E96820F4E06008436060287800070B
:1006D00006D56068296920F4605040EAC100606076
:1006E00000F018F86168084AC1F30311515CC84072
:1006F0000649086006480068FFF7F8FE0020C2E7D8
:100700000020024000100240D82300082C000020E6
:10071000240000200E4A51680E4801F00C03042BFF
:1007200011D0082B0FD10C48C1F38343C903C05C1F
:100730000AD55168084AC1F34041921E515C054AEE
:100740005043B0FBF1F07047044948437047000044
:100750000010024000127A00C823000800093D0082
:100760002DE9F84F040070D02078C04DC00749D063
:100770006868C0F38100012807D06868C0F3810071
:10078000022809D16868C00306D52868800339D5D6
:1007900060680028E7D035E06068B0F5803F0BD096
:1007A00010B1B0F5A02F11D0286820F48030286057
:1007B000286820F4802002E0286840F48030286017
:1007C000606890B1FFF772FE06460AE0286840F4C0
:1007D00080202860F0E700BFFFF768FE801B6428D8
:1007E00073D828688003F7D50CE0FFF75FFE064654
:1007F00005E000BFFFF75AFE801B6428F0D8286888
:100800008003F7D420789A4E80074FF001094FF00B
:10081000000839D5686810F00C0F07D06868C0F37D
:100820008100022809D16868C00306D428688007BF
:1008300014D52069012808D110E02069B0B1C6F8AC
:100840000090FFF733FE074605E00AE1FFF72EFEB2
:10085000C01B0228C4D828688007F7D528686169BA
:1008600020F0F80040EAC10028600DE0C6F80080E2
:10087000FFF71CFE074604E0FFF718FEC01B022826
:1008800023D828688007F7D4207800072CD579482A
:10089000A169D9B1C0F80090FFF708FE074604E04F
:1008A000FFF704FEC01B02280FD8686A8007F7D53F
:1008B00071484FF4FA510068B0FBF1F0009000BFAE
:1008C0000098411E0091FAD20EE080E0C0F800804E
:1008D000FFF7ECFD074604E0FFF7E8FDC01B022828
:1008E00075D8686A8007F7D42078400760D5E86932
:1008F0000027C00008D4E86940F08050E861E8694A
:10090000012700F0805000905C480168C90513D4AD
:100910000168834641F480710160FFF7C7FD82469C
:1009200006E000BFFFF7C2FDA0EB0A0064284ED826
:10093000DBF80000C005F5D5E06801280AD008B151
:10094000052813D0286A20F001002862286A20F0C8
:10095000040002E0286A40F001002862E06841F2E9
:10096000883B98B1FFF7A2FD82460BE0286A40F071
:1009700004002862EEE700BFFFF798FDA0EB0A0134
:1009800059455AD8286A8007F6D50CE0FFF78EFD46
:10099000824605E0FFF78AFDA0EB0A0159454CD8D5
:1009A000286A8007F6D41FB1E86920F08050E8611A
:1009B000E06988B36968C1F38101022944D0022843
:1009C000C6F8608004D0FFF771FD044638E034E0DB
:1009D000FFF76CFD074604E0FFF768FDC01B022827
:1009E0002BD828688001F7D4206AB0F5803F05D164
:1009F0006868A16820F4003008436860D4E9080101
:100A00000843696821F4741108436860C6F860906F
:100A1000FFF74CFD044606E025E000BFFFF746FD6A
:100A2000001B022809D828688001F7D51BE000BF09
:100A3000FFF73CFD001B022802D90320BDE8F88F18
:100A400028688001F4D40EE00128F7D06868226A93
:100A500000F48031914204D1616A00F47010884240
:100A600001D00120EAE70020E8E700000010024082
:100A700000004242800442422C00002000700040EE
:100A800010B5401EB0F1807F01D3012010BD4FF0A2
:100A9000E02460610F21601700F0FEFE0020A061DD
:100AA00007202061002010BD7047704710B590F8F6
:100AB0003C20012A22D0012280F83C20CA688C68A0
:100AC00022F4407222434C6822F4806222430C6874
:100AD00022F4006222430C6922F4805222434C69C2
:100AE00022F400522243C969002322F480420A43BF
:100AF00001684A6480F83C30002010BD022010BD1F
:100B000070B590F83C20012A26D0012480F83C40A2
:100B1000022280F83D2003685A689D6822F0700622
:100B20000A6832435A600D4B02689A4208D0B2F10B
:100B3000804F05D00A4B9A4202D00A4B9A4204D108
:100B4000496825F080031943916080F83D400021F9
:100B500080F83C10084670BD022070BD002C01409A
:100B6000000400400008004010B5040003D094F8D1
:100B70003D0010B107E0012010BD002084F83C00CA
:100B8000204600F01FF8022084F83D00211D206857
:100B900000F060FD012084F8460084F83E0084F8EF
:100BA0003F0084F8400084F8410084F8420084F853
:100BB000430084F8440084F8450084F83D00002098
:100BC00010BD000008B500680B49884212D10B48DF
:100BD000C16941F00201C161C069002200F0020058
:100BE000009011461D20FFF7CDFCBDE808401D20F8
:100BF000FFF7BABC08BD000000040040001002402E
:100C000090F83D10012901D001207047022180F8A1
:100C10003D100168CA6842F00102CA6000680B49D1
:100C2000884208D0B0F1804F05D00949884202D0EF
:100C30000849884204D1816801F00701062903D0E0
:100C4000016841F00101016000207047002C014063
:100C5000000400400008004070B5044690F83C00D5
:100C60000025012817D0012684F83C60022084F872
:100C70003D002068826822F0770222F47F42826081
:100C80000868502838D00DDC20284FD005DC90B300
:100C9000102811D14AE0022070BD302846D04028EB
:100CA0000AD13BE060282FD070280DD0B0F5805FCE
:100CB00003D0B0F5005F12D0012584F83D6000201C
:100CC00084F83C00284670BDCB68D1E9012120683A
:100CD00000F009FD2068816841F0770109E0CB68E8
:100CE000D1E90121206800F0FEFC2068816841F410
:100CF00080418160E1E719E0CA684968206800F036
:100D0000A7FD5021206806E0CA684968206800F005
:100D1000B0FD6021206800F0F0FCCEE7CA684968A9
:100D2000206800F095FD40212068F4E72268014624
:100D30001046F0E72DE9F0410D46040003D094F889
:100D40003D0018B108E00120BDE8F081002084F8E2
:100D50003C00204600F040F8022084F83D00206866
:100D6000816844F2070291438160211D206800F0F0
:100D700071FC226890689169166A2B68AF69034319
:100D800040F20330814341EA0721A868EF69084334
:100D90004FF6FC418843E96840EA0720014328698F
:100DA0002F6A000140EA0730084369686D6926F040
:100DB000220646EA0515294393602268906154F89B
:100DC000460B0162012004F81F09E0752076E076E9
:100DD0002077A0750020B7E700B585B0002100910D
:100DE0000191029103910068B0F1804F18D10D4834
:100DF000C16941F00101C161C16901F001010491C2
:100E0000816941F0040181618069694600F0040054
:100E1000049003200090012002900348FFF74CFA51
:100E200005B000BD001002400008014070B590F808
:100E30003E60044690F83F5090F8423090F84320CE
:100E4000022021B104290ED0012E1BD114E0012E65
:100E500018D1012B16D184F83E0084F842000122FB
:100E60000021206820E0012D0CD1012A0AD184F84C
:100E70003F0084F8430014E0012D03D1012B01D180
:100E8000012A01D0012070BD84F83E0084F83F00A3
:100E900084F8420084F8430001220021206800F019
:100EA00015FC01220421206800F010FC2068016874
:100EB00041F001010160002070BD70472DE9F04153
:100EC00004460068C66805694FF00007A90713D5F6
:100ED000B10711D5F91E01610120207720688069D2
:100EE0008007204602D0FFF7E8FF04E000F0A4F8F6
:100EF000204600F049F92777680716D5700714D502
:100F000021686FF004000861022020772068806962
:100F100010F4407F204602D0FFF7CFFF04E000F03E
:100F20008BF8204600F030F92777280715D53007D1
:100F300013D521686FF0080008610420207720682D
:100F4000C0698007204602D0FFF7B7FF04E000F039
:100F500073F8204600F018F92777E80616D5F00652
:100F600014D521686FF010000861082020772068F0
:100F7000C06910F4407F204602D0FFF79EFF04E0D6
:100F800000F05AF8204600F0FFF82777E80708D06D
:100F9000F00706D021686FF001000861204600F0DC
:100FA00043F9280608D5300606D521686FF0800081
:100FB00008612046FFF778FD680608D5700606D55B
:100FC00021686FF040000861204600F071F9A80622
:100FD0000AD5B00608D521686FF0200008612046C8
:100FE000BDE8F041FFF761BDBDE8F08100B585B017
:100FF0000021009101910291039100680B49884200
:1010000012D10B48816941F0040181618069694610
:1010100000F0040004904FF4006000900220019062
:1010200003900448FFF748F905B000BD002C0140CB
:101030000010024000080140704770B5044690F867
:101040003C0000260D4601280FD0012084F83C000A
:101050006AB1042A1DD0082A2FD00C2A3FD00126BD
:10106000002084F83C00304670BD022070BD20682E
:1010700000F04CFB2068816941F008018161206823
:10108000816921F004018161206881692A69114325
:1010900011E0206800F062FB2068816941F4006182
:1010A00081612068816921F48061816120688169A2
:1010B0002A6941EA02218161D2E7206800F07AFBC7
:1010C0002068C16941F00801C1612068C16921F04F
:1010D0000401C1612068C1692A69114311E02068D7
:1010E00000F094FB2068C16941F40061C16120688F
:1010F000C16921F48061C1612068C1692A6941EA3E
:101100000221C161ACE710B5040003D094F83D00A2
:1011100010B107E0012010BD002084F83C002046FB
:1011200000F01EF8022084F83D00211D206800F028
:1011300091FA012084F8460084F83E0084F83F00CC
:1011400084F8400084F8410084F8420084F84300A9
:1011500084F8440084F8450084F83D00002010BD68
:1011600008B500680649884208D10648816941F4FB
:1011700000618161806900F40060009008BD00009A
:10118000002C0140001002407047000010B50446DA
:10119000022249B104290ED0082913D094F8410045
:1011A000012816D0012010BD94F83E000128F9D185
:1011B00084F83E200FE094F83F000128F2D184F833
:1011C0003F2008E094F840000128EBD184F840204B
:1011D00001E084F841200122206800F077FA0F49ED
:1011E0002068884203D1426C42F400424264206885
:1011F000884208D0B0F1804F05D00949884202D01A
:101200000849884204D1816801F00701062903D00A
:10121000016841F001010160002010BD002C014077
:10122000000400400008004070B500681C49884276
:1012300035D120211B48FFF72FF91B4C0121002637
:1012400020706278A51E22B1012A05D0022A0BD196
:1012500007E048B9617007E028B902206070A1700A
:1012600005E0012800D16670A07801280BD1A8689C
:10127000B0F1814F00D1AE604FF07E51A86800F010
:10128000A7FDA860A670D5E90221084800F000F982
:10129000286100F011FE0549D8390968086470BD5D
:1012A0000004004000080140020000200801002066
:1012B0007047FEE770B586B000241748009401948B
:1012C00002940394816941F020018161816901F0F8
:1012D00020010491816941F00401816180690F4E10
:1012E00000F004000490002218213046FFF7D9F8DE
:1012F00018200125CDE900050220CDE9024069460C
:101300003046FEF7D9FF20208DE83100694630468F
:10131000FEF7D2FF06B070BD001002400008014089
:1013200010B592B000240F941C2108A81094FEF769
:101330004BFF20216846FEF747FF1F481D4901600B
:101340004721C0E901146321C0E9031444618461A9
:10135000FFF7D9FE08B172B6FEE70F940FA9164841
:101360001094FFF7CDFB08B172B6FEE76020CDE91F
:1013700008040A940C940D940C2208A90E480E94AB
:10138000FFF75BFE08B172B6FEE700944FF4005021
:10139000CDE90440029401940394694606480794F9
:1013A000FFF784FB08B172B6FEE70348FFF71EFEA5
:1013B00012B010BD002C01403000002010B58CB0E0
:1013C00024216846FEF700FF0024154809944FF0D9
:1013D00080410A94C0E900144FF6FF71C0E9024150
:1013E000046184610320CDE900040120CDE90204F9
:1013F0000494CDE905400794694609480894FFF72D
:1014000099FC08B172B6FEE7099409A904480A9448
:10141000FFF776FB002801D072B6FEE70CB010BDD6
:101420007800002010B586B000241748009401947D
:101430000294039404941349059401604721C0E980
:10144000011442F20F71C0E903148461FFF78CFBB1
:1014500008B172B6FEE74FF48050009069460A4822
:10146000FFF7FAFB08B172B6FEE7049404A9064838
:101470000594FFF745FB002801D072B6FEE706B0E1
:1014800010BD000000040040C0000020FEE7FEE7A1
:101490002DE9F047040011D0206C60648146E06BB8
:1014A0002064C4E906218046104600F079FE054616
:1014B000E063207828B101283BD038E00020BDE867
:1014C000F0872946606800F063FD60622946A068E5
:1014D00000F05EFDA16A00F07BFC0646A062606B36
:1014E000A063206B60634146284600F059FE014628
:1014F0002063E06800F04CFDE0623046616900F076
:1015000013FE606908D380F00040A16A00F00CFE71
:1015100003D2606980F00040A062D4E9090100F0C4
:1015200057FCE16A31E0206980F000402062206AC7
:10153000C5E74146284600F033FE616800F028FD0B
:10154000074660622946A06800F022FD0646A062B8
:10155000606BA063206B60630121404600F0F5FEE4
:10156000294600F012FE494600F032FC0146206395
:10157000E06800F00DFD0546E0623146384600F0B7
:1015800027FC294600F024FC216A00F021FC20629F
:10159000216900F0C9FD2069C8D380F00040216AAC
:1015A00000F0C2FDC3D2BEE710B50028029C16D0E1
:1015B000002A14D00170116841605168816000F107
:1015C0000C0C91688CE81A0000218163416301636F
:1015D0000162C1628162416241640164C16310BD04
:1015E00070477047FEF768BF30B58FB02821684656
:1015F000FEF7EAFD14210AA8FEF7E6FD0121080422
:10160000CDE900100024029402250491CDE9075091
:101610004FF4E01009906846FFF7A2F808B172B6DF
:10162000FEE70F20CDE90A054FF48060CDE90C40BC
:1016300002210AA80E94FEF7D7FF002801D072B647
:10164000FEE70FB030BD70470148FFF737BC000020
:10165000C0000020F0B50268194B1A4C1A4D4FF02B
:101660008047984205D0B84203D0A04201D0A8429A
:1016700003D122F070064A683243984205D0B8423E
:1016800003D0A04201D0A84203D122F44074CA681A
:1016900022434C6922F08002224302608A68C262BF
:1016A0000A688262984201D109690163012141619E
:1016B0000169C90703D0016921F001010161F0BD91
:1016C000002C0140000400400008004010B501F06B
:1016D0001F030121046A99408C430462016A9A4005
:1016E0001143016210BD10B5846842EA032224F45C
:1016F0007F440A432243826010BD826822F0700258
:101700000A4342F0070181607047000030B5036A68
:10171000026A22F0010202624268846924F07305C1
:101720000C682C4323F002058B682B430A4DA8421A
:101730000BD123F00805CB6822F440722B434D698E
:1017400023F0040315438A692A434260846149688F
:101750004163036230BD0000002C014030B5026AD5
:10176000036A23F010030362436884690D6824F45C
:10177000E64444EA05248D6822F0200242EA05127C
:101780000B4DA8420ED1CD6822F0800242EA05122C
:101790004D6923F4406343EA85038D6922F04002DA
:1017A00043EA85034360846149688163026230BD16
:1017B000002C014030B5036A026A22F48072026292
:1017C0004268C46923F4007324F073050C682C4349
:1017D0008D6843EA05230C4DA8420ED1CD6823F451
:1017E000006343EA05234D6922F4405242EA0512A0
:1017F0008D6923F4806342EA05124260C46149683E
:10180000C163036230BD0000002C014030B5046AA2
:10181000026A22F4805202624268C3690D6823F4AE
:10182000E64343EA05238D6824F4005444EA053472
:10183000064DA84204D14D6922F4804242EA851245
:101840004260C36149680164046230BD002C0140FC
:1018500010B5036A046A24F001040462846924F068
:10186000F00444EA021423F00A020A43846102628B
:1018700010BD10B5036A046A24F010040462846980
:1018800023F0A00324F4704444EA023243EA011135
:101890008261016210BDFEE70907090E002804DB22
:1018A00000F1E02080F80014704700F00F0000F114
:1018B000E02080F8141D704708B5FEF705FEFFF71D
:1018C00093FEFFF7F7FCFFF7ADFDFFF729FDFFF7EC
:1018D00075FD2D4800902D4B2D4A00212D48FFF716
:1018E00063FE2C480C21D838FFF750FC29483C21D6
:1018F0009038FFF74BFC27483C219038FFF796FAC9
:1019000024489038FFF77CF922484838FFF778F9E7
:10191000214C012208212046FEF7C3FD00221021A0
:101920002046FEF7BEFD1B480025D8380068056438
:10193000184F174C903FDFF86480DFF86490DFF8B1
:1019400064A0DFF864B0143C3E68706A00B2208086
:1019500000F0D2FA414600F01BFB00F00DFA4A46B7
:10196000534600F05DF800225B4600F059F86FF036
:10197000010200F0BCFC00F019F8E0607562B420D0
:10198000FEF788FCE0E70000000048420000C84283
:10199000140000200801002000080140000020C1C0
:1019A000CDCCCCCCCC4C35400000264021F00042C0
:1019B000A2F16052B2F5801F01F0004328BFD2F1BE
:1019C0007F6C0BD95FEA001C43EAC20242EB507005
:1019D00018BF704728BF20F001007047B2F5801F84
:1019E000BCBF184670474FEA410C1CF5001F02D2DD
:1019F000084600F094BB70B500F06AF90000008959
:101A0000FFF7F6BF4FF00040A0F5800070470000E0
:101A100002494FF0000000F038BC00BF0000F87F22
:101A20002DE9C04130B4DFF8A0C23CEA111418BF60
:101A30003CEA131400F0EC8081EA03051CEA11145F
:101A400044EAD57418BF1CEA131500F0C780A4EB54
:101A500005044FF0004545EAC12145EAC32341EAA8
:101A6000505143EA525304F17F74994204F5003413
:101A70004FEAC0204FEAC22208BF904200F09C808B
:101A80004FEA13650FF24016765D4FEA134506FBE9
:101A900005F7C7F1807706FB07F74FEAD737A7FBB3
:101AA00003687642C8F58038A7FB06CE38BFA8F198
:101AB000010807FB08E64FF0000EA6FB028CE6FBD0
:101AC00003CEDCF1000CCEF1004E38BFAEF1010EBA
:101AD000A6FB0C584FF000074FF00005E6FB0E8701
:101AE000A1FB08C6A0FB07CE16EB0E0645F10005CC
:101AF000E1FB076515F1E04E7EBFA4F580345FEA97
:101B000046066D4116F1800745F100054FEA17279B
:101B10004FEA066647EA0567A6F1DE46B6F1805F42
:101B20004FEA15251FD9384624F0010C05EBC47186
:101B3000BCF1FE6F01EB0C1102D8F0BCBDE80081D6
:101B400024425CBF01F5801E9EEAC47F02D4F0BC33
:101B5000BDE80081244238D4F0BCA1F1C041BDE809
:101B6000004100F003B94FEAD22242EA43524FEA61
:101B7000D323A7FB02864FEAD02040EA415007FB5F
:101B800003661EEA0E0F4FEAD12105FB026658BF1D
:101B9000A6EB0056B6EB00564FEA520E4EEAC37E55
:101BA00018EB0E0E56EB530EBDD518EB02085E4136
:101BB0007F1C55F10005B6E74FF480154FF0000784
:101BC0004FF000064FF00008ADE7F0BC4FF000000A
:101BD00001F1C04101F00041BDE8008111EA0C1F94
:101BE0000CEA131500D00CE013EA0C1F00F025805E
:101BF0004FF00000F0BC81EA030101F00041BDE8B4
:101C00000081F0BCBDE8004181EA030100F0AEB8FC
:101C1000F0BCBDE8004170B500F05AF8097EFC3E0A
:101C200000F007B881EA03014FF0000001F0004125
:101C3000704781EA030100F099B8F0BCBDE80041AB
:101C40004FF0000021497047FFFDFBF9F7F5F4F272
:101C5000F0EEEDEBE9E8E6E4E3E1E0DEDDDBDAD847
:101C6000D7D5D4D3D1D0CFCDCCCBCAC8C7C6C5C4A5
:101C7000C2C1C0BFBEBDBCBBBAB9B8B7B6B5B4B3BC
:101C8000B2B1B0AFAEADACABAAA9A8A8A7A6A5A4A7
:101C9000A3A3A2A1A09F9F9E9D9C9C9B9A9999986B
:101CA0009797969595949393929191908F8F8E8E0E
:101CB0008D8C8C8B8B8A898988888787868585849B
:101CC00084838382828181800000FF070000F87F87
:101CD0000EF1020E2EF0030E5EF8046B364205D4B0
:101CE000012A43EB030515F5001F12D8012841EB2B
:101CF000010C1CF5001F0CD80ED14FEAD17C15F554
:101D0000001F0CEB4C0C0CF1020C08BF4CEBD37C0D
:101D100004E04FF0080C01E04FEAD37C0CEB4C05DB
:101D200026FA05F606F00706B6F1040C06D20EEB0D
:101D3000860CBDE870404CF0010C6047DFE80CF009
:101D4000090B02024FF000414FF00000A1F5002105
:101D500070BD19461046012851EB010418BFD4F597
:101D6000001484BF002001F0004170BD0808A0F5F8
:101D700000114FEA3101704743004FEAD30C4FEA9C
:101D80003C0C43401FBF40070CF1605113F0FE4F65
:101D900070471CF0006F03D100200CF00041704729
:101DA0000CF0004343EA507010B540EACC0000F05C
:101DB00070F900BF000000924FEA0001FFF7D6BFA4
:101DC0004FF000414FF00000A1F5002170470000E6
:101DD00090EA010F48BF81F0004100F1E881421A0A
:101DE0003CBF801A89184FEAD0524FF07F4C1CEA52
:101DF000410FA2EBD15318BF9CEA026F00F03B8069
:101E00004FF0004C4CEA00204CEA012121FA03FC7F
:101E100010EB0C0C1ED202F1FF325FEA1C2040EBEB
:101E2000C25038BF70471CF07F0F4FEA400C18BFFC
:101E3000BCF17F4F38BF7047C3F12003994008BF02
:101E400020F00100BCF17F4F38BF7047A0F1C040C7
:101E500000F065B94FEA3C00000A40EBC25028BFD1
:101E60001CF0FF0F4FEA400CE6D018BFBCF17F4FCB
:101E700038BF7047EAE79CEA026F05D010EA5C0FB2
:101E800008BF00F00040704710B500F002F900BF35
:101E900064FBBE3E014800F0F8B900BF0000C07FFF
:101EA000401058BFC0F14040491058BFC1F14041F7
:101EB0008142EFF300807047C10DD1F19E0206DB35
:101EC0004FEA002343F0004323FA02F07047004238
:101ED00007D54FEA4001B1F1FE4F02D24FF00000AA
:101EE000704710B500F0D5F8499224800020704763
:101EF0006FEA20007047000010F0004148BF4042E8
:101F0000B0FA80F310FA03F2C3F19D030BD051EA4B
:101F1000C35101EB1220530638BF704700F1010096
:101F200008BF20F00100704750EA010C00F1138057
:101F30001CF5000F58BFBCF5000F01D48842704754
:101F400007D710F5000F58BF11F5000F15D48842C0
:101F50007047894270471CF5000F04D5BCF5000F8F
:101F6000F7D5814270474FF0807C1CEB400F38BFA3
:101F70001CEB410F01D28142704710B500F089F887
:101F8000922449004FF000504FF08051FFF788BF76
:101F90004FF47F0C1CEAD0121EBF1CEAD11392EA48
:101FA0000C0F93EA0C0F00F0478090EA010F48BF36
:101FB00042F480724FF0004C4CEA00204CEA0121C0
:101FC00002EB0302A0FB0113A2F50002002918BFD7
:101FD00043F001035B0028BF4FEA330342EB224288
:101FE0005FEA132C4CEBC2502EBFBCEB436FB2F533
:101FF0007C0F70474FEA036CBCF1004F08BF20F024
:102000000100B2F57C0F38BF70470BD582F0FF029C
:1020100012F5803FC8BF704700F1C040D8BF00F044
:102020000040704700F5000C5FEA4C0C48BF704759
:10203000B0F1C04000F073B890EA010F0CEAD11380
:1020400048BF42F48072624538BF634504D280EADB
:10205000010000F00040704710B500F01AF800BF12
:102060008900013E00F007B800F009B85FEA410CB2
:102070005FEA1C6C08D080EA010000F050B85FEA0B
:10208000400C5FEA1C6CF6D14FF00040A0F58000D8
:1020900070470EF1020E2EF0030E5EF8044B244240
:1020A00004D44FEA4102B2F17F4F11D84FEA400306
:1020B000B3F17F4F0CD80ED14FEAD07CB2F17F4FF5
:1020C0000CEB4C0C0CF1020C08BF4CEBD17C04E087
:1020D0004FF0080C01E04FEAD17C0CEB4C0324FAE2
:1020E00003F404F00704B4F1040C06D20EEB840CE4
:1020F000BDE810404CF0010C6047DFE80CF0070829
:1021000002024FF00040A0F5800010BD08464200DA
:1021100018BFD2F1807288BF00F0004010BDFF21CF
:1021200041EAD050C005704751EA000C00F113801D
:102130001CF5000F58BFBCF5000F01D48142704759
:1021400007D711F5000F58BF10F5000F15D48142C5
:102150007047894270471CF5000F04D5BCF5000F8D
:10216000F7D5884270474FF0807C1CEB410F38BF99
:102170001CEB400F01D28842704780EA010081EADF
:10218000000180EA0100FFF7F8BE80F0004090EA0D
:10219000010F7FF524AE81F0004100F008B8000087
:1021A00090EA010F48BF81F000413FF518AE421A96
:1021B00004D882F00042A0EB020011444FEAD05252
:1021C0004FF07F4C1CEA410FA2EBD15318BF9CEAA1
:1021D000026F4AD04FF0004C4CEA00204CEA01213B
:1021E00021FA03FCB0EB0C0C0FD412F0FE0F36D02A
:1021F0005FEA4C001DD5001240EBC25038BF70475B
:102200001CF03F0F18BF70470BE0A2F101025FEA1C
:102210001C2040EBC25038BF70471CF07F0F18BF26
:102220007047C3F12003994014BF401E20F0010005
:10223000704780084FEA122308BF7047B0FA80FC4D
:10224000A2EB0C02CCF1280C60FA0CF093EA122FEE
:1022500004BF00EBC25070474FEAC3707047130AC7
:102260005FEADC1008BF7047F6E79CEA026F04D013
:1022700010EA5C0F08BF0020704710B5FFF709FF98
:1022800040DFF63E81F0004070470CF00F03092B51
:1022900008BF082000F07F800A2B0BD0082B18BF46
:1022A000704708BF1CF0400F0AD04FF000004FF0FD
:1022B000000170471CF0400F18BF4FF000407047FE
:1022C0001CF0100F08D020F0704300F07F4242EA6B
:1022D000D3014FEA4370704700F0604021F07F4225
:1022E00042EA000201F07F4040EA727070474FF00E
:1022F000FF0C4CF4E06C1CEA11531CBF9CEA030C6D
:102300009445C2BFDA4201EB02517047002B0DD059
:10231000BCF1000F0FD0002A01F00041A4BF41F032
:10232000E04141F07F614FF00000704701F0004153
:102330004FF00000704750EA01334FF09B0C18BF7C
:102340004CF0806C7FF464AB70474FF0FF0212EAF0
:10235000D0521CBF92F0FF038B42C2BFD14200EBB0
:10236000C1507047002A0AD0002B0BD0002900F082
:102370000040A4BF40F0FE4040F40000704700F071
:102380000040704743024FF00B0C18BF4CF0806CBC
:102390007FF480AD70471CF4801F11D01CF4E02F37
:1023A00003D06FEACC31490070474FF04050EFF353
:1023B000008222F0704242EA000282F300887047F5
:1023C0004FF00000704701020203040506070809E8
:1023D0000A0B0C0D0E0F1010000000000000000092
:1023E0000102030406070809082400080000002071
:1023F00030000000280100083824000830000020C8
:1024000080070000440100080000000000000000F8
:102410000000803F0000000000000000000020419C
:102420000000403FCDCCCC3D01000000100000007A
:082430000000000000127A0018
:04000005080000ED02
:00000001FF
